{
  "_format": "hh-sol-artifact-1",
  "contractName": "LockupPool",
  "sourceName": "contracts/LockupPool.sol",
  "abi": [
    {
      "inputs": [
        {
          "internalType": "address",
          "name": "_owner",
          "type": "address"
        },
        {
          "internalType": "uint256",
          "name": "_lockupTime",
          "type": "uint256"
        },
        {
          "internalType": "uint256",
          "name": "_tokenAmount",
          "type": "uint256"
        },
        {
          "internalType": "address",
          "name": "_token",
          "type": "address"
        }
      ],
      "stateMutability": "nonpayable",
      "type": "constructor"
    },
    {
      "anonymous": false,
      "inputs": [
        {
          "indexed": true,
          "internalType": "address",
          "name": "_depoitor",
          "type": "address"
        },
        {
          "indexed": true,
          "internalType": "uint256",
          "name": "_depositedAmount",
          "type": "uint256"
        }
      ],
      "name": "Deposit",
      "type": "event"
    },
    {
      "anonymous": false,
      "inputs": [
        {
          "indexed": true,
          "internalType": "address",
          "name": "_withdrawalAccount",
          "type": "address"
        },
        {
          "indexed": true,
          "internalType": "uint256",
          "name": "_withdrawAmount",
          "type": "uint256"
        },
        {
          "indexed": true,
          "internalType": "uint256",
          "name": "_amountLeft",
          "type": "uint256"
        }
      ],
      "name": "Withdraw",
      "type": "event"
    },
    {
      "inputs": [],
      "name": "getLockupDeadline",
      "outputs": [
        {
          "internalType": "uint256",
          "name": "",
          "type": "uint256"
        }
      ],
      "stateMutability": "view",
      "type": "function"
    },
    {
      "inputs": [],
      "name": "getLockupPeriod",
      "outputs": [
        {
          "internalType": "uint256",
          "name": "",
          "type": "uint256"
        }
      ],
      "stateMutability": "view",
      "type": "function"
    },
    {
      "inputs": [],
      "name": "getPoolBalance",
      "outputs": [
        {
          "internalType": "uint256",
          "name": "",
          "type": "uint256"
        }
      ],
      "stateMutability": "view",
      "type": "function"
    },
    {
      "inputs": [],
      "name": "getTokenSymbol",
      "outputs": [
        {
          "internalType": "string",
          "name": "",
          "type": "string"
        }
      ],
      "stateMutability": "view",
      "type": "function"
    },
    {
      "inputs": [],
      "name": "lockedToken",
      "outputs": [
        {
          "internalType": "contract ERC20",
          "name": "",
          "type": "address"
        }
      ],
      "stateMutability": "view",
      "type": "function"
    },
    {
      "inputs": [],
      "name": "lockupDeadline",
      "outputs": [
        {
          "internalType": "uint256",
          "name": "",
          "type": "uint256"
        }
      ],
      "stateMutability": "view",
      "type": "function"
    },
    {
      "inputs": [],
      "name": "lockupTime",
      "outputs": [
        {
          "internalType": "uint256",
          "name": "",
          "type": "uint256"
        }
      ],
      "stateMutability": "view",
      "type": "function"
    },
    {
      "inputs": [],
      "name": "tokenAmount",
      "outputs": [
        {
          "internalType": "uint256",
          "name": "",
          "type": "uint256"
        }
      ],
      "stateMutability": "view",
      "type": "function"
    },
    {
      "inputs": [
        {
          "internalType": "uint256",
          "name": "_withdrawAmount",
          "type": "uint256"
        }
      ],
      "name": "withdraw",
      "outputs": [],
      "stateMutability": "nonpayable",
      "type": "function"
    }
  ],
  "bytecode": "0x60806040523480156200001157600080fd5b5060405162000f5c38038062000f5c8339818101604052810190620000379190620002ba565b8260008190555082426200004c91906200035b565b6001819055508160028190555080600360006101000a81548173ffffffffffffffffffffffffffffffffffffffff021916908373ffffffffffffffffffffffffffffffffffffffff16021790555083600460006101000a81548173ffffffffffffffffffffffffffffffffffffffff021916908373ffffffffffffffffffffffffffffffffffffffff160217905550600360009054906101000a900473ffffffffffffffffffffffffffffffffffffffff1673ffffffffffffffffffffffffffffffffffffffff166323b872dd600460009054906101000a900473ffffffffffffffffffffffffffffffffffffffff1630856040518463ffffffff1660e01b81526004016200015e93929190620003b8565b6020604051808303816000875af11580156200017e573d6000803e3d6000fd5b505050506040513d601f19601f82011682018060405250810190620001a4919062000432565b5081600460009054906101000a900473ffffffffffffffffffffffffffffffffffffffff1673ffffffffffffffffffffffffffffffffffffffff167fe1fffcc4923d04b559f4d29a8bfc6cda04eb5b0d3c460751c2402c5c5cc9109c60405160405180910390a35050505062000464565b600080fd5b600073ffffffffffffffffffffffffffffffffffffffff82169050919050565b600062000247826200021a565b9050919050565b62000259816200023a565b81146200026557600080fd5b50565b60008151905062000279816200024e565b92915050565b6000819050919050565b62000294816200027f565b8114620002a057600080fd5b50565b600081519050620002b48162000289565b92915050565b60008060008060808587031215620002d757620002d662000215565b5b6000620002e78782880162000268565b9450506020620002fa87828801620002a3565b93505060406200030d87828801620002a3565b9250506060620003208782880162000268565b91505092959194509250565b7f4e487b7100000000000000000000000000000000000000000000000000000000600052601160045260246000fd5b600062000368826200027f565b915062000375836200027f565b925082820190508082111562000390576200038f6200032c565b5b92915050565b620003a1816200023a565b82525050565b620003b2816200027f565b82525050565b6000606082019050620003cf600083018662000396565b620003de602083018562000396565b620003ed6040830184620003a7565b949350505050565b60008115159050919050565b6200040c81620003f5565b81146200041857600080fd5b50565b6000815190506200042c8162000401565b92915050565b6000602082840312156200044b576200044a62000215565b5b60006200045b848285016200041b565b91505092915050565b610ae880620004746000396000f3fe608060405234801561001057600080fd5b50600436106100935760003560e01c80637945041711610066578063794504171461010e578063abd70aa21461012c578063b54d321d1461014a578063eec7faa114610168578063f1850af81461018657610093565b80630d05d69d146100985780630f45cc81146100b65780632deefca6146100d45780632e1a7d4d146100f2575b600080fd5b6100a06101a4565b6040516100ad91906104cd565b60405180910390f35b6100be6101aa565b6040516100cb9190610567565b60405180910390f35b6100dc6101d0565b6040516100e991906104cd565b60405180910390f35b61010c600480360381019061010791906105c2565b6101d6565b005b6101166103f4565b60405161012391906104cd565b60405180910390f35b6101346103fe565b60405161014191906104cd565b60405180910390f35b610152610408565b60405161015f91906104cd565b60405180910390f35b610170610411565b60405161017d91906104cd565b60405180910390f35b61018e610417565b60405161019b919061067f565b60405180910390f35b60005481565b600360009054906101000a900473ffffffffffffffffffffffffffffffffffffffff1681565b60015481565b600460009054906101000a900473ffffffffffffffffffffffffffffffffffffffff1673ffffffffffffffffffffffffffffffffffffffff163373ffffffffffffffffffffffffffffffffffffffff1614610266576040517f08c379a000000000000000000000000000000000000000000000000000000000815260040161025d90610713565b60405180910390fd5b8060025410156102ab576040517f08c379a00000000000000000000000000000000000000000000000000000000081526004016102a29061077f565b60405180910390fd5b6001544210156102f0576040517f08c379a00000000000000000000000000000000000000000000000000000000081526004016102e790610811565b60405180910390fd5b80600260008282546103029190610860565b92505081905550600360009054906101000a900473ffffffffffffffffffffffffffffffffffffffff1673ffffffffffffffffffffffffffffffffffffffff1663a9059cbb33836040518363ffffffff1660e01b81526004016103669291906108b5565b6020604051808303816000875af1158015610385573d6000803e3d6000fd5b505050506040513d601f19601f820116820180604052508101906103a99190610916565b50600254813373ffffffffffffffffffffffffffffffffffffffff167ff279e6a1f5e320cca91135676d9cb6e44ca8a08c0b88342bcdb1144f6511b56860405160405180910390a450565b6000600154905090565b6000600254905090565b60008054905090565b60025481565b6060600360009054906101000a900473ffffffffffffffffffffffffffffffffffffffff1673ffffffffffffffffffffffffffffffffffffffff166395d89b416040518163ffffffff1660e01b8152600401600060405180830381865afa158015610486573d6000803e3d6000fd5b505050506040513d6000823e3d601f19601f820116820180604052508101906104af9190610a69565b905090565b6000819050919050565b6104c7816104b4565b82525050565b60006020820190506104e260008301846104be565b92915050565b600073ffffffffffffffffffffffffffffffffffffffff82169050919050565b6000819050919050565b600061052d610528610523846104e8565b610508565b6104e8565b9050919050565b600061053f82610512565b9050919050565b600061055182610534565b9050919050565b61056181610546565b82525050565b600060208201905061057c6000830184610558565b92915050565b6000604051905090565b600080fd5b600080fd5b61059f816104b4565b81146105aa57600080fd5b50565b6000813590506105bc81610596565b92915050565b6000602082840312156105d8576105d761058c565b5b60006105e6848285016105ad565b91505092915050565b600081519050919050565b600082825260208201905092915050565b60005b8381101561062957808201518184015260208101905061060e565b60008484015250505050565b6000601f19601f8301169050919050565b6000610651826105ef565b61065b81856105fa565b935061066b81856020860161060b565b61067481610635565b840191505092915050565b600060208201905081810360008301526106998184610646565b905092915050565b7f4f6e6c79206f776e657220697320616c6c6f77656420746f20706572666f726d60008201527f207468697320616374696f6e0000000000000000000000000000000000000000602082015250565b60006106fd602c836105fa565b9150610708826106a1565b604082019050919050565b6000602082019050818103600083015261072c816106f0565b9050919050565b7f4e6f7420656e6f75676820746f20776974686472617721000000000000000000600082015250565b60006107696017836105fa565b915061077482610733565b602082019050919050565b600060208201905081810360008301526107988161075c565b9050919050565b7f596f75206e65656420746f2077616974206265666f726520646561646c696e6560008201527f2100000000000000000000000000000000000000000000000000000000000000602082015250565b60006107fb6021836105fa565b91506108068261079f565b604082019050919050565b6000602082019050818103600083015261082a816107ee565b9050919050565b7f4e487b7100000000000000000000000000000000000000000000000000000000600052601160045260246000fd5b600061086b826104b4565b9150610876836104b4565b925082820390508181111561088e5761088d610831565b5b92915050565b600061089f826104e8565b9050919050565b6108af81610894565b82525050565b60006040820190506108ca60008301856108a6565b6108d760208301846104be565b9392505050565b60008115159050919050565b6108f3816108de565b81146108fe57600080fd5b50565b600081519050610910816108ea565b92915050565b60006020828403121561092c5761092b61058c565b5b600061093a84828501610901565b91505092915050565b600080fd5b600080fd5b7f4e487b7100000000000000000000000000000000000000000000000000000000600052604160045260246000fd5b61098582610635565b810181811067ffffffffffffffff821117156109a4576109a361094d565b5b80604052505050565b60006109b7610582565b90506109c3828261097c565b919050565b600067ffffffffffffffff8211156109e3576109e261094d565b5b6109ec82610635565b9050602081019050919050565b6000610a0c610a07846109c8565b6109ad565b905082815260208101848484011115610a2857610a27610948565b5b610a3384828561060b565b509392505050565b600082601f830112610a5057610a4f610943565b5b8151610a608482602086016109f9565b91505092915050565b600060208284031215610a7f57610a7e61058c565b5b600082015167ffffffffffffffff811115610a9d57610a9c610591565b5b610aa984828501610a3b565b9150509291505056fea26469706673582212204a39022cc072c81cf268a3db0d4d099ab8757ed5795c68f0292a7fc09150aa0664736f6c63430008120033",
  "linkReferences": {},
  "deployedLinkReferences": {}
}