{
  "abi": [
    {
      "inputs": [
        {
          "internalType": "address",
          "name": "_owner",
          "type": "address"
        },
        {
          "internalType": "uint256",
          "name": "_lockupTime",
          "type": "uint256"
        },
        {
          "internalType": "uint256",
          "name": "_tokenAmount",
          "type": "uint256"
        },
        {
          "internalType": "address",
          "name": "_token",
          "type": "address"
        }
      ],
      "stateMutability": "nonpayable",
      "type": "constructor"
    },
    {
      "anonymous": false,
      "inputs": [
        {
          "indexed": true,
          "internalType": "address",
          "name": "_depoitor",
          "type": "address"
        },
        {
          "indexed": true,
          "internalType": "uint256",
          "name": "_depositedAmount",
          "type": "uint256"
        }
      ],
      "name": "Deposit",
      "type": "event"
    },
    {
      "anonymous": false,
      "inputs": [
        {
          "indexed": true,
          "internalType": "address",
          "name": "_withdrawalAccount",
          "type": "address"
        },
        {
          "indexed": true,
          "internalType": "uint256",
          "name": "_withdrawAmount",
          "type": "uint256"
        },
        {
          "indexed": true,
          "internalType": "uint256",
          "name": "_amountLeft",
          "type": "uint256"
        }
      ],
      "name": "Withdraw",
      "type": "event"
    },
    {
      "inputs": [
        {
          "internalType": "uint256",
          "name": "_depositAmount",
          "type": "uint256"
        }
      ],
      "name": "deposit",
      "outputs": [],
      "stateMutability": "nonpayable",
      "type": "function"
    },
    {
      "inputs": [],
      "name": "getLockupDeadline",
      "outputs": [
        {
          "internalType": "uint256",
          "name": "",
          "type": "uint256"
        }
      ],
      "stateMutability": "view",
      "type": "function"
    },
    {
      "inputs": [],
      "name": "getLockupPeriod",
      "outputs": [
        {
          "internalType": "uint256",
          "name": "",
          "type": "uint256"
        }
      ],
      "stateMutability": "view",
      "type": "function"
    },
    {
      "inputs": [],
      "name": "getPoolBalance",
      "outputs": [
        {
          "internalType": "uint256",
          "name": "",
          "type": "uint256"
        }
      ],
      "stateMutability": "view",
      "type": "function"
    },
    {
      "inputs": [],
      "name": "lockedToken",
      "outputs": [
        {
          "internalType": "contract ERC20",
          "name": "",
          "type": "address"
        }
      ],
      "stateMutability": "view",
      "type": "function"
    },
    {
      "inputs": [],
      "name": "lockupDeadline",
      "outputs": [
        {
          "internalType": "uint256",
          "name": "",
          "type": "uint256"
        }
      ],
      "stateMutability": "view",
      "type": "function"
    },
    {
      "inputs": [],
      "name": "lockupTime",
      "outputs": [
        {
          "internalType": "uint256",
          "name": "",
          "type": "uint256"
        }
      ],
      "stateMutability": "view",
      "type": "function"
    },
    {
      "inputs": [],
      "name": "tokenAmount",
      "outputs": [
        {
          "internalType": "uint256",
          "name": "",
          "type": "uint256"
        }
      ],
      "stateMutability": "view",
      "type": "function"
    },
    {
      "inputs": [
        {
          "internalType": "uint256",
          "name": "_withdrawAmount",
          "type": "uint256"
        }
      ],
      "name": "withdraw",
      "outputs": [],
      "stateMutability": "nonpayable",
      "type": "function"
    }
  ],
  "bytecode": {
    "object": "0x608060405234801561001057600080fd5b506040516105e03803806105e083398101604081905261002f91610099565b600083905561003e83426100df565b600155600291909155600380546001600160a01b039283166001600160a01b031991821617909155600480549490921693169290921790915550610106565b80516001600160a01b038116811461009457600080fd5b919050565b600080600080608085870312156100af57600080fd5b6100b88561007d565b935060208501519250604085015191506100d46060860161007d565b905092959194509250565b8082018082111561010057634e487b7160e01b600052601160045260246000fd5b92915050565b6104cb806101156000396000f3fe608060405234801561001057600080fd5b50600436106100935760003560e01c8063794504171161006657806379450417146100fd578063abd70aa214610105578063b54d321d1461010d578063b6b55f2514610115578063eec7faa11461012857600080fd5b80630d05d69d146100985780630f45cc81146100b45780632deefca6146100df5780632e1a7d4d146100e8575b600080fd5b6100a160005481565b6040519081526020015b60405180910390f35b6003546100c7906001600160a01b031681565b6040516001600160a01b0390911681526020016100ab565b6100a160015481565b6100fb6100f63660046103c5565b610131565b005b6001546100a1565b6002546100a1565b6000546100a1565b6100fb6101233660046103c5565b6102d8565b6100a160025481565b6004546001600160a01b031633146101645760405162461bcd60e51b815260040161015b906103de565b60405180910390fd5b8060025410156101b65760405162461bcd60e51b815260206004820152601760248201527f4e6f7420656e6f75676820746f20776974686472617721000000000000000000604482015260640161015b565b6001544210156102125760405162461bcd60e51b815260206004820152602160248201527f596f75206e65656420746f2077616974206265666f726520646561646c696e656044820152602160f81b606482015260840161015b565b80600260008282546102249190610440565b90915550506003546040516323b872dd60e01b8152306004820152336024820152604481018390526001600160a01b03909116906323b872dd906064016020604051808303816000875af1158015610280573d6000803e3d6000fd5b505050506040513d601f19601f820116820180604052508101906102a49190610459565b50600254604051829033907ff279e6a1f5e320cca91135676d9cb6e44ca8a08c0b88342bcdb1144f6511b56890600090a450565b6004546001600160a01b031633146103025760405162461bcd60e51b815260040161015b906103de565b80600260008282546103149190610482565b90915550506003546040516323b872dd60e01b8152336004820152306024820152604481018390526001600160a01b03909116906323b872dd906064016020604051808303816000875af1158015610370573d6000803e3d6000fd5b505050506040513d601f19601f820116820180604052508101906103949190610459565b50604051819033907fe1fffcc4923d04b559f4d29a8bfc6cda04eb5b0d3c460751c2402c5c5cc9109c90600090a350565b6000602082840312156103d757600080fd5b5035919050565b6020808252602c908201527f4f6e6c79206f776e657220697320616c6c6f77656420746f20706572666f726d60408201526b103a3434b99030b1ba34b7b760a11b606082015260800190565b634e487b7160e01b600052601160045260246000fd5b818103818111156104535761045361042a565b92915050565b60006020828403121561046b57600080fd5b8151801515811461047b57600080fd5b9392505050565b808201808211156104535761045361042a56fea2646970667358221220d55ddc5fa8c6b9e8504082d626dcd5e7fc4333aa3b9e86957b1965523cd228a764736f6c63430008120033",
    "linkReferences": {}
  },
  "methodIdentifiers": {
    "deposit(uint256)": "b6b55f25",
    "getLockupDeadline()": "79450417",
    "getLockupPeriod()": "b54d321d",
    "getPoolBalance()": "abd70aa2",
    "lockedToken()": "0f45cc81",
    "lockupDeadline()": "2deefca6",
    "lockupTime()": "0d05d69d",
    "tokenAmount()": "eec7faa1",
    "withdraw(uint256)": "2e1a7d4d"
  },
  "id": 0
}