{
  "_format": "hh-sol-artifact-1",
  "contractName": "Proxiable",
  "sourceName": "contracts/Proxiable.sol",
  "abi": [
    {
      "inputs": [],
      "name": "proxiableUUID",
      "outputs": [
        {
          "internalType": "bytes32",
          "name": "",
          "type": "bytes32"
        }
      ],
      "stateMutability": "pure",
      "type": "function"
    }
  ],
  "bytecode": "0x608060405234801561001057600080fd5b5060d88061001f6000396000f3fe6080604052348015600f57600080fd5b506004361060285760003560e01c806352d1902d14602d575b600080fd5b60336047565b604051603e91906089565b60405180910390f35b60007fc5f16f0fcc639fa48a6947836d9850f504798523bf8c9a3a87d5876cf622bcf760001b905090565b6000819050919050565b6083816072565b82525050565b6000602082019050609c6000830184607c565b9291505056fea264697066735822122016c5f7611da589412a43a7454aeeb6ba9dd701479c45fdd226fd46269277ae5864736f6c63430008120033",
  "linkReferences": {},
  "deployedLinkReferences": {}
}