{
  "abi": [
    {
      "anonymous": false,
      "inputs": [
        {
          "indexed": true,
          "internalType": "address",
          "name": "_poolOwner",
          "type": "address"
        },
        {
          "indexed": true,
          "internalType": "uint256",
          "name": "_lockupTime",
          "type": "uint256"
        },
        {
          "indexed": true,
          "internalType": "address",
          "name": "_tokenAddress",
          "type": "address"
        },
        {
          "indexed": false,
          "internalType": "uint256",
          "name": "_tokenAmount",
          "type": "uint256"
        },
        {
          "indexed": false,
          "internalType": "uint256",
          "name": "_lockupDeadline",
          "type": "uint256"
        }
      ],
      "name": "CreateLockupPool",
      "type": "event"
    },
    {
      "inputs": [
        {
          "internalType": "address",
          "name": "_owner",
          "type": "address"
        },
        {
          "internalType": "uint256",
          "name": "_lockupTime",
          "type": "uint256"
        },
        {
          "internalType": "uint256",
          "name": "_tokenAmount",
          "type": "uint256"
        },
        {
          "internalType": "address",
          "name": "_token",
          "type": "address"
        },
        {
          "internalType": "bytes32",
          "name": "_salt",
          "type": "bytes32"
        }
      ],
      "name": "deploy",
      "outputs": [
        {
          "internalType": "address",
          "name": "",
          "type": "address"
        }
      ],
      "stateMutability": "nonpayable",
      "type": "function"
    },
    {
      "inputs": [],
      "name": "poolId",
      "outputs": [
        {
          "internalType": "uint256",
          "name": "",
          "type": "uint256"
        }
      ],
      "stateMutability": "view",
      "type": "function"
    },
    {
      "inputs": [
        {
          "internalType": "uint256",
          "name": "",
          "type": "uint256"
        },
        {
          "internalType": "address",
          "name": "",
          "type": "address"
        }
      ],
      "name": "pools",
      "outputs": [
        {
          "internalType": "address",
          "name": "poolAddr",
          "type": "address"
        },
        {
          "internalType": "address",
          "name": "poolOwner",
          "type": "address"
        },
        {
          "internalType": "uint256",
          "name": "lockupTime",
          "type": "uint256"
        },
        {
          "internalType": "address",
          "name": "tokenAddress",
          "type": "address"
        },
        {
          "internalType": "uint256",
          "name": "tokenAmount",
          "type": "uint256"
        },
        {
          "internalType": "uint256",
          "name": "lockupDeadline",
          "type": "uint256"
        }
      ],
      "stateMutability": "view",
      "type": "function"
    }
  ],
  "bytecode": {
    "object": "0x608060405234801561001057600080fd5b50610943806100206000396000f3fe608060405234801561001057600080fd5b50600436106100415760003560e01c806302dce0e6146100465780633e0dc34e146100e3578063b4f6e156146100fa575b600080fd5b6100a061005436600461028c565b60006020818152928152604080822090935290815220805460018201546002830154600384015460048501546005909501546001600160a01b0394851695938516949293919092169186565b604080516001600160a01b039788168152958716602087015285019390935293166060830152608082019290925260a081019190915260c0015b60405180910390f35b6100ec60025481565b6040519081526020016100da565b61010d6101083660046102b8565b610125565b6040516001600160a01b0390911681526020016100da565b6000806101328642610306565b90506000838888888860405161014790610263565b6001600160a01b0394851681526020810193909352604083019190915290911660608201526080018190604051809103906000f590508015801561018f573d6000803e3d6000fd5b506040805160c0810182526001600160a01b038084168083523360208085019182528486018e81528c851660608701908152608087018f815260a088018c81526002805460009081528087528b812098815297909552988620975188549088166001600160a01b031991821617895594516001808a018054928a1692881692909217909155925188850155905160038801805491909716941693909317909455905160048501559351600590930192909255825493945092610252908490610306565b909155509098975050505050505050565b6105e08061032e83390190565b80356001600160a01b038116811461028757600080fd5b919050565b6000806040838503121561029f57600080fd5b823591506102af60208401610270565b90509250929050565b600080600080600060a086880312156102d057600080fd5b6102d986610270565b945060208601359350604086013592506102f560608701610270565b949793965091946080013592915050565b8082018082111561032757634e487b7160e01b600052601160045260246000fd5b9291505056fe608060405234801561001057600080fd5b506040516105e03803806105e083398101604081905261002f91610099565b600083905561003e83426100df565b600155600291909155600380546001600160a01b039283166001600160a01b031991821617909155600480549490921693169290921790915550610106565b80516001600160a01b038116811461009457600080fd5b919050565b600080600080608085870312156100af57600080fd5b6100b88561007d565b935060208501519250604085015191506100d46060860161007d565b905092959194509250565b8082018082111561010057634e487b7160e01b600052601160045260246000fd5b92915050565b6104cb806101156000396000f3fe608060405234801561001057600080fd5b50600436106100935760003560e01c8063794504171161006657806379450417146100fd578063abd70aa214610105578063b54d321d1461010d578063b6b55f2514610115578063eec7faa11461012857600080fd5b80630d05d69d146100985780630f45cc81146100b45780632deefca6146100df5780632e1a7d4d146100e8575b600080fd5b6100a160005481565b6040519081526020015b60405180910390f35b6003546100c7906001600160a01b031681565b6040516001600160a01b0390911681526020016100ab565b6100a160015481565b6100fb6100f63660046103c5565b610131565b005b6001546100a1565b6002546100a1565b6000546100a1565b6100fb6101233660046103c5565b6102d8565b6100a160025481565b6004546001600160a01b031633146101645760405162461bcd60e51b815260040161015b906103de565b60405180910390fd5b8060025410156101b65760405162461bcd60e51b815260206004820152601760248201527f4e6f7420656e6f75676820746f20776974686472617721000000000000000000604482015260640161015b565b6001544210156102125760405162461bcd60e51b815260206004820152602160248201527f596f75206e65656420746f2077616974206265666f726520646561646c696e656044820152602160f81b606482015260840161015b565b80600260008282546102249190610440565b90915550506003546040516323b872dd60e01b8152306004820152336024820152604481018390526001600160a01b03909116906323b872dd906064016020604051808303816000875af1158015610280573d6000803e3d6000fd5b505050506040513d601f19601f820116820180604052508101906102a49190610459565b50600254604051829033907ff279e6a1f5e320cca91135676d9cb6e44ca8a08c0b88342bcdb1144f6511b56890600090a450565b6004546001600160a01b031633146103025760405162461bcd60e51b815260040161015b906103de565b80600260008282546103149190610482565b90915550506003546040516323b872dd60e01b8152336004820152306024820152604481018390526001600160a01b03909116906323b872dd906064016020604051808303816000875af1158015610370573d6000803e3d6000fd5b505050506040513d601f19601f820116820180604052508101906103949190610459565b50604051819033907fe1fffcc4923d04b559f4d29a8bfc6cda04eb5b0d3c460751c2402c5c5cc9109c90600090a350565b6000602082840312156103d757600080fd5b5035919050565b6020808252602c908201527f4f6e6c79206f776e657220697320616c6c6f77656420746f20706572666f726d60408201526b103a3434b99030b1ba34b7b760a11b606082015260800190565b634e487b7160e01b600052601160045260246000fd5b818103818111156104535761045361042a565b92915050565b60006020828403121561046b57600080fd5b8151801515811461047b57600080fd5b9392505050565b808201808211156104535761045361042a56fea2646970667358221220d55ddc5fa8c6b9e8504082d626dcd5e7fc4333aa3b9e86957b1965523cd228a764736f6c63430008120033a26469706673582212202d83d3980d9ac4a611a90becaa14d2f2f68ab3903a7f86dec4029126f6d0b9a464736f6c63430008120033",
    "linkReferences": {}
  },
  "methodIdentifiers": {
    "deploy(address,uint256,uint256,address,bytes32)": "b4f6e156",
    "poolId()": "3e0dc34e",
    "pools(uint256,address)": "02dce0e6"
  },
  "id": 1
}